:100000000C943F010C945C010C945C010C945C0119
:100010000C945C010C94DA020C945C010C945C016D
:100020000C945C010C945C010C945C010C94300AFF
:100030000C945C010C945C010C94CA040C945C015B
:100040000C945C010C945C010C94E3090C94D409AD
:100050000C945C010C945C010C945C010C945C01AC
:100060000C945C010C945C01416C64692D494F2037
:1000700076302E3130300D000D0D0D0D0000C18198
:100080004001C0804101C0804100C1814001C08069
:100090004100C1814000C1814001C0804101C08058
:1000A0004100C1814000C1814001C0804100C18147
:1000B0004001C0804101C0804100C1814001C08039
:1000C0004100C1814000C1814001C0804100C18127
:1000D0004001C0804101C0804100C1814000C18118
:1000E0004001C0804101C0804100C1814001C08009
:1000F0004100C1814000C1814001C0804101C080F8
:100100004100C1814000C1814001C0804100C181E6
:100110004001C0804101C0804100C1814000C181D7
:100120004001C0804101C0804100C1814001C080C8
:100130004100C1814000C1814001C0804100C181B6
:100140004001C0804101C0804100C1814001C080A8
:100150004100C1814000C1814001C0804101C08097
:100160004100C1814000C1814001C0804100C18186
:100170004001C0804101C0804100C1814000C0C138
:1001800001C30302C2C60607C705C5C404CC0C0DD3
:10019000CD0FCFCE0E0ACACB0BC90908C8D8181983
:1001A000D91BDBDA1A1EDEDF1FDD1D1CDC14D4D5E3
:1001B00015D71716D6D21213D311D1D010F0303173
:1001C000F133F3F23236F6F737F53534F43CFCFD13
:1001D0003DFF3F3EFEFA3A3BFB39F9F83828E8E9A3
:1001E00029EB2B2AEAEE2E2FEF2DEDEC2CE4242523
:1001F000E527E7E62622E2E323E12120E0A0606193
:10020000A163A3A26266A6A767A56564A46CACAD52
:100210006DAF6F6EAEAA6A6BAB69A9A86878B8B902
:1002200079BB7B7ABABE7E7FBF7DBDBC7CB4747562
:10023000B577B7B67672B2B373B17170B0509091B2
:10024000519353529296565797559594549C5C5D92
:100250009D5F9F9E5E5A9A9B5B9959589888484922
:10026000894B8B8A4A4E8E8F4F8D4D4C8C448485A2
:10027000458747468682424383418180400011245E
:100280001FBECFEFD4E0DEBFCDBF12E0A0E0B1E0F3
:10029000EAEDFEE202C005900D92A035B107D9F754
:1002A00013E0A0E5B2E001C01D92A73EB107E1F75F
:1002B0000E9482040C946B170C9400002091690238
:1002C000E22FF0E0EE0FFF1FE953FD4F9183808393
:1002D0002F5F2093690280916B028F5F80936B0286
:1002E0008B3060F08AE080936B0280916A028F5FAE
:1002F00080936A028A3010F010926A022A3010F05D
:1003000010926902089580916B022AE030E0281B68
:100310003109C901089580916A02E82FF0E0EE0FDB
:10032000FF1FE953FD4F208131818F5F80936A0267
:1003300090916B02915090936B028A3010F0109262
:100340006A02C9010895982F80916B02981718F0DE
:10035000EFEFFFEF0EC0E0916A02E90FEA3008F01C
:10036000EA50F0E0EE0FFF1FE953FD4F0190F081DE
:10037000E02DCF01089580916B0208955598EDE628
:10038000F0E0808180628083E8E6F0E08081846034
:100390008083569A5E9887B1807F87B988B18F60D5
:1003A00088B9579A5F98209A2898219A299A229A70
:1003B0002A98529A5A983C9A44983D9A4598239A7A
:1003C0002498259A80E58CBD08958EBD0DB407FE56
:1003D000FDCF08950DB407FEFDCF8EB50895299881
:1003E00028985F9A5F98289A8FEF8EBD0DB407FE0C
:1003F000FDCF0DB407FEFDCF9EB58FEF8EBD0DB4C2
:1004000007FEFDCF0DB407FEFDCF8EB5299A392F1B
:1004100020E0280F311DC901089590959EBD0DB4AF
:1004200007FEFDCF80958EBD0DB407FEFDCF2A9A45
:100430002A980895FC01F999FECF8AE090E092BDD8
:1004400081BDF89A90B59F3F29F0892F8150803166
:1004500008F490830895282FF999FECF1FBA8AE0F7
:1004600090E092BD81BD20BD0FB6F894FA9AF99A3A
:100470000FBE0895CF93DF93EC0180917F0290919E
:100480008002C817D90709F492C0D0938002C093A4
:100490007F0280910001882331F08091000181303A
:1004A00061F4209781F180916B028A3019F481E028
:1004B00080935B02CE010E945E01C332D10519F523
:1004C00080915C02882351F481E080935C0288EE85
:1004D00093E090935E0280935D0269C080915C021C
:1004E000833009F064C085E080935C028FEF8EBD9D
:1004F0000DB407FEFDCF8FEF8EBD0DB407FEFDCF0F
:100500002A9A2A9854C080915C02813009F1809126
:100510005C02823021F4CD2B09F049C045C08091A6
:100520005C028530C1F4CD2B09F041C02091560208
:1005300030915702832F80958EBD0DB407FEFDCFFD
:10054000822F80958EBD0DB407FEFDCF2A9A2A9882
:1005500010925C022CC080915C028330D1F4E1E007
:10056000F1E044E028EC30E080819181C817D907A0
:1005700051F4D0936502C093640240935C023093BF
:100580005E0220935D02329681E0E331F80761F765
:100590000EC080915C02843051F48091640290918D
:1005A0006502C817D90719F083E080935C02DF91D8
:1005B000CF9108951F920F920FB60F9211248F932F
:1005C0004D9904C05E9881E0809359028F910F90FD
:1005D0000FBE0F901F901895EF92FF920F931F93ED
:1005E000CF93DF937C016115710501F1CA01860F7C
:1005F000971F4297D8F4EA018B010150104011C0B7
:10060000AE01C930D10514F048E050E0B80183E5EF
:1006100092E00E94DF0EF70181937F012897085F27
:100620001F4F1C161D0664F380E001C081E0DF91BE
:10063000CF911F910F91FF90EF900895EF92FF924D
:100640000F931F93CF93DF937C0161157105E1F147
:10065000CA01860F971F4297B8F5EA018B01015036
:1006600010402223A1F0213069F526C0AE01C93027
:10067000D10514F048E050E0B80186E592E00E9410
:10068000DF0EF70181937F012897085F1F4F1C162B
:100690001D0664F317C0F70121917F01AE01C93037
:1006A000D10514F048E050E0B80186E592E00E94E0
:1006B000A50E2897085F1F4F1C161D0664F381E0E6
:1006C0008093580280E001C081E0DF91CF911F91BB
:1006D0000F91FF90EF9008958EE70E94BB0681E096
:1006E00008959F92AF92BF92CF92DF92EF92FF92C6
:1006F0000F931F93CF93DF935C016A01922ECA017F
:10070000860F971F0E9758F06536710541F06636D3
:10071000710511F081E0EAC006E610E001C08B012E
:10072000EE24FF24D7C0992029F021E0921609F089
:10073000CCC062C001301105C1F48091000120914C
:100740005B0240915902682F70E083E0660F771FCB
:100750008A95E1F730E0220F331F220F331F622BFF
:10076000732B50E0642B752B38C00230110529F42F
:1007700080916B02682F70E030C0C80103970A9720
:10078000B8F4902F935080916B02981718F06FEF88
:100790007FEF23C0E0916A02E90FEA3008F0EA50E7
:1007A000F0E0EE0FFF1FE953FD4F6081718115C02E
:1007B0000536110531F46091560270915702707040
:1007C0000CC00636110519F060E070E006C080919B
:1007D000560290915702692F7727F501EE0DFF1D04
:1007E0007083C7010196F501E80FF91F60837C0152
:1007F0000894E11CF11C69C0C7010196F501E80FDE
:10080000F91F2081C22FD0E07C010894E11CF11C6B
:100810000130110591F4D695C7959E012170209362
:100820005A02D695C795D695C7959E0121702093FB
:10083000000181E20E94BB0648C00230110521F58B
:10084000CE010E94220760916B02862F90E09E01EC
:100850008217930708F49C0140916A0250E006C099
:100860004F5F4A3008F040E05F5F6150852F90E0B5
:1008700082179307A8F360936B0240936A02232BBD
:1008800021F110925B0221C00536110561F48091BF
:100890005602909157028070C82BD92BD0935702E3
:1008A000C093560210C00636110579F480915602A5
:1008B000909157023C2F22279070282B392B309390
:1008C000570220935602909258020894C108D1080A
:1008D0000F5F1F4FC114D10409F025CF80915A0238
:1008E000882321F083E20E94BB0680E0DF91CF9154
:1008F0001F910F91FF90EF90DF90CF90BF90AF903E
:100900009F900895EF920F931F930E94BE0188E776
:1009100090E00E94070788E690E00E94070786B1F2
:1009200080958F7080936202F999FECF8AE090E003
:1009300092BD81BDF89A90B59F3F31F0892F8150CB
:10094000803110F49093620292E094BD85E085BD01
:1009500016BC87E187BD90936E0060916202EE2421
:1009600000E815E220E030E040E080E00E941D1049
:1009700023E030E043E151E061E084E30E94730E44
:1009800078940E946F0F789450980E94B2090E9448
:10099000920FFBCF1F920F920FB60F9211242F933D
:1009A0003F934F935F936F937F938F939F93AF93F7
:1009B000BF93EF93FF930E94EF01909352028093B5
:1009C000510281E08093550280915C02882321F0DE
:1009D00080915C02813029F580915802882301F1D1
:1009E0002091560230915702832F80958EBD0DB411
:1009F00007FEFDCF822F80958EBD0DB407FEFDCF83
:100A00002A9A2A9880915A02882321F010925A0239
:100A10001092590280915902882319F45E9A01C0FC
:100A20005E9840916E02442341F4EFE6F2E01192A9
:100A300022E0EF37F207D9F702C0463029F0EFE69F
:100A4000F2E021E030E030C0EFE6F2E041E050E0DB
:100A50008081863039F48091530290915402842B26
:100A6000952B0BC0882369F42091530230915402D6
:100A7000CA0180959095822393239093540280938A
:100A80005302319682E0EF37F80719F0440F551FF3
:100A9000DFCF10926E0280915302909154020E9417
:100AA0003A0215C0220F331F8091510290915202D9
:100AB00082239323892B19F080818F5F8083319665
:100AC00082E0EF37F80771F74F5F40936E02809135
:100AD0005C02813021F580915D0290915E02049765
:100AE00050F080915D0290915E02039790935E02B8
:100AF00080935D029DC082E080935C0210925F0251
:100B000010926102109260028091620280936302EF
:100B100080E395E7909368028093670289C0809193
:100B20005C02833069F080915C02823049F08091F0
:100B30005C02843029F080915C02863009F078C034
:100B40008091600290916102049750F08091600260
:100B5000909161020397909361028093600268C054
:100B600080E991E09093610280936002809163023A
:100B70008A3078F480916302882359F0E09163020F
:100B8000F0E0EE0FFF1FE150FF4F0190F081E02DEC
:100B900002C0E0E0F0E080915F02882381F4E095FC
:100BA000F095F1708F2F80958EBD0DB407FEFDCFAF
:100BB0008E2F80958EBD0DB407FEFDCF0CC08F2FFC
:100BC00080958EBD0DB407FEFDCF8E2F80958EBD16
:100BD0000DB407FEFDCF2A9A2A9880915F0290E01B
:100BE000882309F491E090935F025E9A80915C0201
:100BF0008630F1F480916602882331F0809166029C
:100C000081508093660214C02091560230915702A1
:100C1000832F80958EBD0DB407FEFDCF822F80956A
:100C20008EBD0DB407FEFDCF2A9A2A9810925C0261
:100C300080915C02843009F03CC080915D0290910B
:100C40005E02049750F080915D0290915E020397DE
:100C500090935E0280935D0254C0E1E0F1E041E0D8
:100C60006AE070E0A6E05AE02091640230916502EB
:100C70008081918128173907B9F4409363028091EC
:100C800063028093620280916202F999FECF1FBADB
:100C900072BD61BD80BD0FB6F894FA9AF99A0FBE85
:100CA000A0935C02509366024F5F32964A30E1F6A1
:100CB00028C080915C02833021F580916702909179
:100CC0006802049750F08091670290916802039740
:100CD000909368028093670214C02091560230916D
:100CE0005702832F80958EBD0DB407FEFDCF822F56
:100CF00080958EBD0DB407FEFDCF2A9A2A981092DA
:100D00005C0280916C0290916D02019690936D024D
:100D100080936C028C529140E8F010926D02109218
:100D20006C0286B180958F7080936202F999FECF34
:100D30008AE090E092BD81BDF89A90B59F3F31F076
:100D4000892F8150803110F4909362028091620269
:100D50000E94150FFF91EF91BF91AF919F918F91DD
:100D60007F916F915F914F913F912F910F900FBEA7
:100D70000F901F9018953FB7307809F0F894449879
:100D800099E29A95F1F720E049E280FF02C0449A87
:100D900001C04498942F9A95F1F72F5F283011F0F5
:100DA0008695F3CF449A89E28A95F1F7332309F0C7
:100DB000789408958F708A3010F0895C01C0805D4E
:100DC0000E94BB0608951F93182F82958F700E9472
:100DD000DA06812F0E94DA061F9108950F931F9360
:100DE0008C01812F82958F700E94DA06812F0E94DC
:100DF000DA06C80124E0969587952A95E1F70E94C6
:100E0000DA06802F0E94DA061F910F910895CF9382
:100E1000DF93EC0103C00E94BB062196FE01849182
:100E20008823C9F7DF91CF910895CF93DF93EC0129
:100E300003C021960E94BB0688818823D1F7DF91E9
:100E4000CF9108950F931F93DF93CF9300D000D0DD
:100E500000D0CDB7DEB79C011E8245E08E010F5F4A
:100E60001F4F4150F801E40FF11DC9016AE070E025
:100E70000E94EB16805D8083C9016AE070E00E94E9
:100E8000EB169B016115710511F0442351F7CE015A
:100E90000196840F911D0E94150726960FB6F894AF
:100EA000DEBF0FBECDBFCF91DF911F910F9108958F
:100EB000EF92FF921F93DF93CF93CDB7DEB72897C2
:100EC0000FB6F894DEBF0FBECDBF9C0197FF1AC0CE
:100ED000309521953F4F11E016C04150F701E40FC6
:100EE000F11DC9016AE070E00E94FF16805D8083F9
:100EF000C9016AE070E00E94FF169B01611571054F
:100F000049F40AC010E0188647E07E010894E11C0D
:100F1000F11CE3CF442309F7242F112339F021508A
:100F200029F0FE01E20FF11D8DE28183CE010196D1
:100F3000820F911D0E94150728960FB6F894DEBF08
:100F40000FBECDBFCF91DF911F91FF90EF9008951D
:100F500090938202809381020895A0E0B0E0BC01EA
:100F6000CD010E94741420E030E040E051E40E9482
:100F70004C129B01AC0160E070E081EE9AE40E94AB
:100F8000461320E030E040E85FE30E94EE110E944B
:100F900076107093C5006093C40082E08093C00017
:100FA00088E98093C10086E08093C2000895982F5D
:100FB0008091C00085FFFCCF9093C600089580917A
:100FC000C000807808958091C00087FFFCCF809199
:100FD000C60008958F708A3018F0982F995C02C06F
:100FE000982F905D8091C00085FFFCCF9093C60044
:100FF0000895282F82958F708A3018F0982F995C69
:1010000002C0982F905D8091C00085FFFCCF909327
:10101000C600822F8F708A3018F0982F995C02C01A
:10102000982F905D8091C00085FFFCCF9093C60003
:1010300008959C01832F82958F708A3018F0982F25
:10104000995C02C0982F905D8091C00085FFFCCF15
:101050009093C600832F8F708A3018F0982F995C78
:1010600002C0982F905D8091C00085FFFCCF9093C7
:10107000C600C90134E0969587953A95E1F78F70DF
:101080008A3018F0982F995C02C0982F905D80915B
:10109000C00085FFFCCF9093C600822F8F708A30EE
:1010A00018F0982F995C02C0982F905D8091C00035
:1010B00085FFFCCF9093C6000895FC0107C0809186
:1010C000C00085FFFCCF9093C60031969491992380
:1010D000B1F70895FC0107C08091C00085FFFCCFE7
:1010E00031969093C60090819923B1F708950F939C
:1010F0001F93DF93CF9300D000D000D0CDB7DEB7E1
:101100009C011E8245E08E010F5F1F4F4150F80188
:10111000E40FF11DC9016AE070E00E94EB16805DEA
:101120008083C9016AE070E00E94EB169B016115A3
:10113000710511F0442351F7FE013196E40FF11DC2
:1011400007C08091C00085FFFCCF31969093C60008
:1011500090819923B1F726960FB6F894DEBF0FBEA3
:10116000CDBFCF91DF911F910F910895EF92FF9224
:101170001F93DF93CF93CDB7DEB728970FB6F894C0
:10118000DEBF0FBECDBF9C0197FF1AC030952195E1
:101190003F4F11E016C04150F701E40FF11DC901A6
:1011A0006AE070E00E94FF16805D8083C9016AE0FA
:1011B00070E00E94FF169B016115710549F40AC099
:1011C00010E0188647E07E010894E11CF11CE3CF93
:1011D000442309F7942F112339F0915029F0FE018F
:1011E000E90FF11D8DE28183FE013196E90FF11DBA
:1011F00007C08091C00085FFFCCF31969093C60058
:1012000090819923B1F728960FB6F894DEBF0FBEF0
:10121000CDBFCF91DF911F91FF90EF900895DC013A
:101220003FEF2FEF11C08D91422F482750E0CA01A8
:1012300083589F4FFC012491232743585E4FFA01A6
:10124000849161507040382F6115710561F7932FBB
:1012500080E030E0282B392BC90108951092DC0280
:1012600081E0089591E09093DC028093DB0281E0BD
:101270000895FC018091DC02882331F08091DB022B
:1012800080831092DC0281E00895F8949091C1006F
:1012900098609093C100882329F05A988091C100EA
:1012A000806903C08091C1008F768093C10066235E
:1012B00039F08091C10088628093C1005A9A05C0BC
:1012C0008091C1008F7D8093C10078940895CF9262
:1012D000DF92EF92FF920F931F936A017B01122F0F
:1012E000F89484E0CC0CDD1CEE1CFF1C8A95D1F731
:1012F00060E070E880E790E0A70196010E94121775
:10130000215030403093C5002093C400013031F0AB
:10131000023011F490E203C090E001C090E3173076
:1013200021F0183019F4966001C094608091C200D9
:10133000982B9093C20060E080E00E944509789469
:1013400081E01F910F91FF90EF90DF90CF90089573
:101350008093C60081E00895FC018091C6008083DF
:1013600081E0089580918502882339F0E091DD03C2
:10137000F091DE0309951092850280918602882300
:1013800039F0E091E103F091E203099510928602B1
:1013900080918702882339F0E091DF03F091E00328
:1013A00009951092870208951F920F920FB60F921F
:1013B00011248F9381E0809385028F910F900FBE4F
:1013C0000F901F9018951F920F920FB60F92112435
:1013D0008F9381E0809386028F910F900FBE0F90C4
:1013E0001F90189589E190E090938902809388027C
:1013F00010928000E1E8F0E010821092820080817B
:101400008A7F8083EFE6F0E080818D7F8083B19AD0
:1014100081E0089510928500109284002091880246
:10142000309189022115310549F080916F00826069
:1014300080936F0030938900209388008091810011
:101440008560809381000895E1E8F0E080818A7FE3
:101450008083EFE6F0E080818D7F8083B19A0895EC
:101460001F920F920FB60F9211248F9381E08093F9
:1014700087028F910F900FBE0F901F9018951F93AA
:1014800080918B02882321F0823021F010E006C089
:1014900080E001C081E00E943209182F0E94240AD6
:1014A00081E080938B02812F1F910895F89460E072
:1014B00080E00E9445090E94240A789408951F93B1
:1014C00080918A02882319F0813029F406C060E0F7
:1014D00081E00E94450910E030C080918E02909119
:1014E0008F02892BD1F0E0918C02F0918D028081E6
:1014F0000E94A80980918C0290918D020196909390
:101500008D0280938C0280918E0290918F020197C0
:1015100090938F0280938E02DECF8DE3982F9A9561
:10152000F1F78A95F1F783E00E943209182F60E005
:1015300081E00E94450910928A02812F1F9108952F
:10154000DF93CF930F92CDB7DEB7CE0101960E9405
:10155000AC0980918B02813039F0813098F1823072
:10156000B9F0833089F52EC010929102109290024A
:1015700080919002909191022981FC01E352FD4FEC
:1015800020830196909391028093900282E018C08C
:1015900080919002909191028F3F910509F078F42B
:1015A00080919002909191022981FC01E352FD4FBC
:1015B00020830196909391028093900203C083E070
:1015C00080938B020E940A0A80E00F90CF91DF91F6
:1015D0000895F89410928B0260E081E00E94450922
:1015E0000E940A0A789408951F93282FF894109166
:1015F0008B02113011F085E041C0FB013197F0936F
:101600008D02E0938C0281E090E090938F028093B2
:101610008E02208380918E0290918F02840F951FFD
:1016200090938F0280938E0260918E0270918F0250
:10163000CF010E940F0920918E0230918F02F90193
:10164000E352FD4F80832F5F3F4F30938F022093F3
:101650008E0220918E0230918F02F901E352FD4FEC
:1016600090832F5F3F4F30938F0220938E02109311
:101670008A0261E080E00E94450980E078941F9131
:101680000895EF92FF920F931F93CF93DF93EC0196
:101690007B018A01F89480919002909191020497C5
:1016A000E0F060919002709191028DED92E00E94C5
:1016B0000F09892B91F48091DD028883809190023B
:1016C000909191020397F801918380838EED92E0CF
:1016D000F7019183808380E001C085E07894DF91F9
:1016E000CF911F910F91FF90EF900895CF92DF92CD
:1016F000EF92FF920F93862F69017A01F89428E008
:10170000B701A6010E946709813009F581E0C8167A
:101710008BE4D80680E0E80680E0F80628F083E253
:1017200090E0A0E0B0E00DC0CC0CDD1CEE1CFF1C76
:1017300060EA7FE787E190E0A70196010E94121717
:10174000C9010E94F209813011F480E001C083E0F8
:1017500078940F91FF90EF90DF90CF900895CF9302
:10176000DF93FC01EB01888199810697A8F1A181A3
:10177000B281938180E02481422F50E0482B592B85
:101780006581CA01877090709A0173E0369527953C
:101790007A95E1F7892B09F02F5FCA010197805BE9
:1017A0009740D0F42617C1F47A2F60E08B2F90E099
:1017B000682B792B6F5F7F4F21E0CF0106960E9447
:1017C0001E03882319F00E94060F07C085E090E0F1
:1017D0009983888380E001C083E0DF91CF910895F1
:1017E000DF93CF9300D0CDB7DEB7DC01FB01808162
:1017F0009181059761F511962C91119712963C9164
:10180000129714968C911497882309F513969C913E
:10181000892F81508E3FD8F01A829F3F19F481E0C2
:10182000898301C01982722F60E0832F90E0682BBA
:10183000792B6F5F7F4F21E041E050E0CE010196B0
:101840000E941E03882321F00E94060F01C083E03E
:101850000F900F90CF91DF910895FF920F931F93F8
:10186000CF93DF93FC01EB0188819981059709F003
:1018700047C0F180DF0112960281938180E02481CC
:10188000422F50E0482B592BCA0101978F5C97409B
:10189000B8F51982188281E0808388819981019648
:1018A00099838883CA01877090709A0113E03695F6
:1018B00027951A95E1F7892B19F0122F1F5F01C0A8
:1018C000122F1183888199810196998388837F2DB6
:1018D00060E0802F90E0682B792B6F5F7F4F20E0D6
:1018E000CD010E941E03882319F00E94060F09C033
:1018F00088819981810F911D9983888380E001C03F
:1019000083E0DF91CF911F910F91FF9008950F9386
:101910001F93CF93DF93FC01EB0188819981059799
:1019200009F046C00181DF0112963281938180E087
:101930002481422F50E0482B592BCA0101978F5C1C
:101940009740B0F51982188282E08083888199815E
:10195000019699838883CA0187709070BA0123E049
:10196000769567952A95E1F7892B19F0162F1F5F59
:1019700001C0162F118388819981019699838883EC
:10198000702F60E0832F90E0682B792B6F5F7F4F83
:10199000CD010E94EC02882319F00E94060F09C0B5
:1019A00088819981810F911D9983888380E001C08E
:1019B00083E0DF91CF911F910F9108958F929F92B5
:1019C000AF92BF92CF92DF92EF92FF920F931F934D
:1019D000CF93DF93EC018B01FB01808191810A970A
:1019E00008F467C0898022E0A22EB12CAC0EBD1E87
:1019F0009A809B8180E02C81E22EFF24E82AF92A3C
:101A0000ED81FE816F8128857985C70101978D372A
:101A1000910508F053C0962F80E0422F50E0482BEC
:101A2000592B4115510509F449C04A37510508F0B1
:101A300045C09A01220F331F872F90E028173907DE
:101A4000E9F57E2F60E08F2F90E0682B792B6F5F98
:101A50007F4F21E0CE010A960E947103882359F539
:101A6000F8011182108287E188838081918101963B
:101A7000918380836701CC0CDD1CC98280819181B8
:101A8000019691838083782D60E0892D90E0682B0A
:101A9000792B6F5F7F4F20E0A701C5010E94710382
:101AA000882349F4F801808191818C0D9D1D9183DB
:101AB000808380E004C00E94060F01C083E0DF91B4
:101AC000CF911F910F91FF90EF90DF90CF90BF903B
:101AD000AF909F908F9008950F931F93CF93DF93B4
:101AE000FC01EB01888199810597B9F53181DF010E
:101AF000129622818481482F50E0CA0101978D37C8
:101B0000910558F51982188283E080838881998134
:101B10000196998388838A01000F111F01838881B0
:101B20009981019699838883732F60E0822F90E0DA
:101B3000682B792B6F5F7F4F20E0CD010E947103EE
:101B4000882319F00E94060F09C088819981800FAF
:101B5000911F9983888380E001C083E0DF91CF915A
:101B60001F910F910895CF93DF93FC01EB018881C2
:101B70009981069760F13181A281938180E024816F
:101B8000422F50E0482B592B2581CA0101978837F5
:101B90009105E8F4CA01880F991F2817C1F4732F23
:101BA00060E08A2F90E0682B792B6F5F7F4F21E0F8
:101BB000CF0106960E947103882319F00E94060F38
:101BC00007C085E090E09983888380E001C083E0CE
:101BD000DF91CF910895DC01FB0180819181059710
:101BE00011F083E0089511967C91119760E01296B0
:101BF0008C91129790E0682B792B6F5F7F4F21E0DB
:101C000041E050E0CD0103960E947103882311F05A
:101C10000E94060F0895FF920F931F93CF93DF93B7
:101C2000FC01EB01888199810597D1F5F180DF01F5
:101C300012963281938180E02481422F50E0482B1C
:101C4000592BCA0101978C37910550F519821882DA
:101C500084E08083888199810196998388838A01B1
:101C6000000F111F018388819981019699838883D0
:101C70007F2D60E0832F90E0682B792B6F5F7F4F83
:101C8000CD010E946C03882319F00E94060F09C041
:101C900088819981800F911F9983888380E001C09A
:101CA00083E0DF91CF911F910F91FF9008950F93E3
:101CB0001F938B019C012F5F3F4F82E992E040917F
:101CC000B2025091B302BC01C9010E94E216809198
:101CD000B2029091B3020196F8019183808380E073
:101CE0001F910F910895CF93DF93E82FF42F752F55
:101CF000E901C9010296809710F084E023C0E093C7
:101D00009202662311F480E001C08FEF809393026A
:101D100082E090E09093B3028093B202209789F022
:101D200024E932E0AE016F2FC9010E94E2168091D2
:101D3000B2029091B3028C0F9D1F9093B3028093D7
:101D4000B20280E0DF91CF9108950F931F93CF935C
:101D5000DF9330E0DB0153E0B695A7955A95E1F7A4
:101D600067707070E1E0F0E002C0EE0FFF1F4A956F
:101D7000E2F731978C010A0F1B1FE801488150E000
:101D80001196A80FB91F9C9180E0482B592B062E65
:101D900002C0EE0FFF1F0A94E2F7E095F0954E2384
:101DA0005F2302C0220F331F6A95E2F7422B532BA9
:101DB00048835C93DF91CF911F910F910895FB01B0
:101DC000B3E0F695E795BA95E1F7DC01AE0FBF1FDA
:101DD0002C9130E011969C9180E0822B932BA3E014
:101DE000EE0FFF1FAA95E1F76E1B7F0B02C09695C1
:101DF00087956A95E2F721E030E002C0220F331F99
:101E00004A95E2F72150304082230895813029F02D
:101E1000813028F0873039F404C082E0089580E0F2
:101E2000089586E0089584E008958093BB020895A4
:101E3000482F181614F082E00895F8946115710582
:101E4000F9F0E8E1F1E080E090E0208131812115B6
:101E5000310519F02617370769F4FC01EE0FFF1F53
:101E6000E80FF91FE95EFE4F40837283618340975C
:101E700011F51FC0019633968031910531F719C0D5
:101E8000E7E1F1E020E030E08081841759F4F901C6
:101E9000EE0FFF1FE20FF31FE95EFE4F108212826A
:101EA000118209C02F5F3F4F33962031310561F712
:101EB00002C084E001C080E078940895809116010A
:101EC000813011F086E00895E091C502F091C602DC
:101ED000309711F480E00895099580E0089580918D
:101EE0001601813011F086E00895E091BF02F09173
:101EF000C00209951092160180E0089580911601A4
:101F0000882351F4E091C102F091C202099581E069
:101F10008093160180E00895813011F086E00895E5
:101F200080E00895DF93CF930F92CDB7DEB7809115
:101F30001601882311F086E07CC0CE0101960E9434
:101F40003909813009F074C09981913021F09230C3
:101F500009F06EC01BC0E091C302F091C40245EBD2
:101F600052E069EB72E088EB92E00995882309F072
:101F70005FC09091B8028091BB02981719F0992325
:101F800009F056C082E00E94320952C0A091B90205
:101F9000B091BA023C913093B7028093B402E7E16A
:101FA000F1E080E090E020812223C1F0231789F442
:101FB000FC01EE0FFF1FE80FF91FE95EFE4F0180E5
:101FC000F281E02D65EB72E0CD0109958093B402BA
:101FD00005C0019633968031910529F78091B802AA
:101FE000882331F19091B402992399F0E091B902DC
:101FF000F091BA028091B70280688083E091B902C3
:10200000F091BA02918382E090E09093B6028093BF
:10201000B5024091B5025091B6026091B90270913B
:10202000BA02E091BD02F091BE028091BB02099517
:1020300080E00F90CF91DF910895EF920F931F935F
:10204000982F762F642FA9019801872F8150873F01
:1020500008F046C07093BB02992309F041C089EE95
:102060009AE09093C0028093BF0286E59AE0909335
:10207000C2028093C10284EF9AE09093BE028093E3
:10208000BD0281E49BE09093C4028093C30210924E
:10209000C6021092C50280EA9AE09093E203809310
:1020A000E1038FE59AE09093DE038093DD038FE3F5
:1020B0009AE09093E0038093DF030E2D872F0E9418
:1020C000760B182F882369F40E942E09882311F4B7
:1020D00013E007C01092BC0281E08093160101C09A
:1020E00012E0812F1F910F91EF900895EF92FF92D0
:1020F0000F931F937B018C0120E030E040E05FE410
:102100000E94F01388238CF020E030E040E05FE490
:10211000C801B7010E94EE110E9420149B01AC017E
:10212000205030404040504806C0C801B7010E94CE
:1021300020149B01AC01B901CA011F910F91FF90BE
:10214000EF900895A0E0B0E0E8EAF0E10C943417D5
:10215000DC012B01FA019C91923008F439C1EB01AA
:102160008881823008F433C1943069F4843009F0F6
:102170002FC111969C9111978981981709F428C154
:10218000A7E4B1E025C1843009F421C18230A9F46B
:10219000923009F01DC19A01AD0188E0EA01099071
:1021A000AE01E90109929E018150C1F7E2018981E6
:1021B00011969C918923818308C1923009F407C14B
:1021C00012962D903C901397EB018A819B81149677
:1021D000AD90BD90CD90DC901797EC80FD800E8186
:1021E0001F819101281B390BB90137FF04C06627F5
:1021F0007727621B730B603271050CF061C01216F9
:1022000013066CF537014801062E04C09694879496
:10221000779467940A94D2F721E030E040E050E0F0
:1022200004C0220F331F441F551F6A95D2F7215057
:102230003040404050402E213F2140235123211562
:1022400031054105510521F021E030E040E050E04A
:1022500079018A01E628F728082919293CC0232B8F
:10226000D1F1260E371E35014601062E04C0969484
:102270008794779467940A94D2F721E030E040E0A5
:1022800050E004C0220F331F441F551F6A95D2F738
:1022900021503040404050402A213B214C215D21BB
:1022A000211531054105510521F021E030E040E0E4
:1022B00050E059016A01A628B728C828D9280BC0C0
:1022C000821593052CF01C01AA24BB24650103C0D0
:1022D000EE24FF24870111969C91D20111968C91D6
:1022E000981709F445C0992339F0A80197012A19D4
:1022F0003B094C095D0906C0A60195012E193F094D
:10230000400B510B57FD08C0118233822282248377
:102310003583468357831DC081E0818333822282C7
:1023200088279927DC01821B930BA40BB50B8483B0
:102330009583A683B7830DC0220F331F441F551FFB
:1023400024833583468357838281938101979383C6
:1023500082832481358146815781DA01C901019741
:10236000A109B1098F5F9F4FAF4FBF4328F30BC047
:10237000918333822282EA0CFB1C0C1D1D1DE4821A
:10238000F5820683178383E080832481358146812B
:10239000578157FF1AC0C901AA2797FDA095BA2FE8
:1023A00081709070A070B0705695479537952795BD
:1023B000822B932BA42BB52B84839583A683B78381
:1023C00082819381019693838283DF0101C0D201D0
:1023D000CD01CDB7DEB7E2E10C945017A0E2B0E03A
:1023E000E4EFF1E10C94401769837A838B839C833B
:1023F0002D833E834F835887E9E0EE2EF12CEC0EBF
:10240000FD1EB701CE0101960E9411168E010F5ECE
:102410001F4FB801CE0105960E9411168A8991E0DE
:1024200089278A8BAE01475E5F4FB801C7010E94C2
:10243000A2100E943C15A096E6E00C945C17A0E266
:10244000B0E0E5E2F2E10C94401769837A838B8374
:102450009C832D833E834F835887F9E0EF2EF12C28
:10246000EC0EFD1EB701CE0101960E9411168E01E1
:102470000F5E1F4FB801CE0105960E941116AE01E6
:10248000475E5F4FB801C7010E94A2100E943C1531
:10249000A096E6E00C945C17A0E2B0E0E2E5F2E181
:1024A0000C94341769837A838B839C832D833E83BA
:1024B0004F835887BE01675F7F4FCE0101960E9410
:1024C0001116BE016F5E7F4FCE0105960E94111658
:1024D0009985923088F089898230C8F0943019F457
:1024E000823051F404C0843029F4923081F487E4BE
:1024F00091E0C6C0923049F420E09A858A89981309
:1025000021E02A87CE010996BBC0823049F420E041
:102510009A858A89981321E02A8BCE014196B0C012
:102520002D843E844F8458886D887E888F88988C4F
:10253000EE24FF248701AA24BB24650140E050E07B
:1025400060E070E0E0E0F0E0C10181709070892B04
:10255000E9F0E60CF71C081D191D9A01AB012A0DC4
:102560003B1D4C1D5D1D80E090E0A0E0B0E0E61456
:10257000F7040805190520F481E090E0A0E0B0E040
:10258000BA01A901480F591F6A1F7B1FAA0CBB1C67
:10259000CC1CDD1C97FE08C081E090E0A0E0B0E01C
:1025A000A82AB92ACA2ADB2A3196E032F10549F075
:1025B000660C771C881C991C569447943794279472
:1025C000C3CFFA85EA892B893C898B859C85280FA6
:1025D000391F2E5F3F4F17C0CA0181709070892B41
:1025E00061F016950795F794E79480E090E0A0E0FD
:1025F000B0E8E82AF92A0A2B1B2B769567955795A0
:1026000047952F5F3F4F77FDE7CF0CC0440F551F15
:10261000661F771F17FD4160EE0CFF1C001F111F86
:1026200021503040403090E0590790E0690790E435
:10263000790760F32B8F3C8FDB01CA018F77907095
:10264000A070B07080349105A105B10561F447FD1B
:102650000AC0E114F1040105110529F0405C5F4F47
:102660006F4F7F4F40781A8EFE1711F081E08A8FEE
:102670004D8F5E8F6F8F78A383E0898FCE0149964F
:102680000E943C15A096E2E10C945017A8E1B0E03E
:10269000ECE4F3E10C943C1769837A838B839C838D
:1026A0002D833E834F835887B9E0EB2EF12CEC0E3F
:1026B000FD1EB701CE0101960E9411168E010F5E1C
:1026C0001F4FB801CE0105960E94111629852230B0
:1026D00008F47CC03989323010F4B8017AC08A8598
:1026E0009A8989278A87243011F0223031F4231700
:1026F00009F06CC067E471E06CC0343039F41D86B9
:102700001E861F86188A1C861B8604C0323021F460
:1027100084E08987B7015DC02B853C858B899C89C6
:10272000281B390B3C872B87ED84FE840F85188985
:10273000AD88BE88CF88D88CEA14FB040C051D0533
:1027400040F4EE0CFF1C001F111F215030403C874D
:102750002B8720E030E040E050E080E090E0A0E017
:10276000B0E46FE170E0EA14FB040C051D0540F0D5
:10277000282B392B4A2B5B2BEA18FB080C091D0967
:10278000B695A79597958795EE0CFF1C001F111F16
:102790006150704041F7DA01C9018F779070A070E5
:1027A000B07080349105A105B10561F427FD0AC020
:1027B000E114F1040105110529F0205C3F4F4F4F52
:1027C0005F4F20782D873E874F87588BBE01675F0C
:1027D0007F4FCB010E943C156896EAE00C94581795
:1027E000A8E1B0E0E6EFF3E10C94401769837A8347
:1027F0008B839C832D833E834F83588789E0E82E0B
:10280000F12CEC0EFD1EB701CE0101960E941116AF
:102810008E010F5E1F4FB801CE0105960E94111662
:102820008985823040F08989823028F0B801C7015B
:102830000E94891601C08FEF6896E6E00C945C1741
:10284000ACE0B0E0E6E2F4E10C94441769837A83EB
:102850008B839C83BE016B5F7F4FCE0101960E94EC
:1028600011168D81823061F1823050F1843021F473
:102870008E81882351F12EC02F81388537FD20C0ED
:102880006E812F3131051CF06623F9F023C08EE1F3
:1028900090E0821B930B29853A854B855C8504C0AB
:1028A00056954795379527958A95D2F76623B1F0C7
:1028B00050954095309521953F4F4F4F5F4F0EC03B
:1028C00020E030E040E050E009C02FEF3FEF4FEF55
:1028D0005FE704C020E030E040E050E8B901CA0101
:1028E0002C96E2E00C946017A8E0B0E0EAE7F4E18F
:1028F0000C943E177B018C016115710581059105D2
:1029000019F482E0898360C083E089838EE1C82E58
:10291000D12CDC82CB82ED82FE820F831887C80126
:10292000B7010E94ED14BC016150704077FF39C0BF
:10293000EE27FF27E61BF70B20E030E040E050E0F9
:1029400081E090E0A0E0B0E00E2E04C0880F991F57
:10295000AA1FBB1F0A94D2F70197A109B1098E21C2
:102960009F21A023B1230097A105B10521F021E00B
:1029700030E040E050E004C016950795F794E794E6
:10298000EA95D2F72E293F29402B512B2D833E83E8
:102990004F8358878EE190E0861B970B9C838B8337
:1029A00013C06115710581F0062E04C0EE0CFF1CEA
:1029B000001F111F0A94D2F7ED82FE820F83188741
:1029C000C61AD70ADC82CB821A82CE0101960E94F7
:1029D0003C152896E8E00C945A17EF92FF920F935B
:1029E0001F937B018C0180E0E81680E0F80681E00F
:1029F000080780E0180788F48FEFE816F104010556
:102A0000110531F028F088E090E0A0E0B0E017C0B8
:102A100080E090E0A0E0B0E012C080E0E81680E046
:102A2000F80680E0080781E0180728F088E190E0C8
:102A3000A0E0B0E004C080E190E0A0E0B0E020E2DF
:102A400030E040E050E0281B390B4A0B5B0B04C020
:102A500016950795F794E7948A95D2F7F701E15B0D
:102A6000FE4F8081281B310941095109C9011F917D
:102A70000F91FF90EF900895DF92EF92FF920F93E6
:102A80001F93FC01E480F58006811781D18080814D
:102A9000823048F480E090E0A0E1B0E0E82AF92A32
:102AA0000A2B1B2BA5C0843009F49FC0823021F46F
:102AB000EE24FF24870105C0E114F104010511058E
:102AC00019F4E0E0F0E096C0628173819FEF623814
:102AD00079070CF05BC022E83FEF261B370B2A3149
:102AE00031052CF020E030E040E050E02AC0B80191
:102AF000A701022E04C076956795579547950A94CD
:102B0000D2F781E090E0A0E0B0E004C0880F991F08
:102B1000AA1FBB1F2A95D2F70197A109B1098E21DF
:102B20009F21A023B1230097A105B10521F081E0E9
:102B300090E0A0E0B0E09A01AB01282B392B4A2BA2
:102B40005B2BDA01C9018F779070A070B070803470
:102B50009105A105B10539F427FF09C0205C3F4F5D
:102B60004F4F5F4F04C0215C3F4F4F4F5F4FE0E03E
:102B7000F0E02030A0E03A07A0E04A07A0E45A07BE
:102B800010F0E1E0F0E079018A0127C060387105BA
:102B900064F5FB01E158FF4FD801C7018F779070B2
:102BA000A070B07080349105A105B10539F4E7FE3D
:102BB0000DC080E490E0A0E0B0E004C08FE390E0BE
:102BC000A0E0B0E0E80EF91E0A1F1B1F17FF05C0AA
:102BD00016950795F794E794319687E01695079533
:102BE000F794E7948A95D1F705C0EE24FF24870176
:102BF000EFEFF0E06E2F679566276795902F9F7730
:102C0000D794DD24D7948E2F8695492F462B582FA5
:102C10005D29B701CA011F910F91FF90EF90DF90DE
:102C20000895FC01DB01408151812281622F6F7781
:102C300070E0221F2227221F9381892F880F822B69
:102C4000282F30E0991F9927991F11969C9311976F
:102C500021153105A9F5411551056105710511F4DD
:102C600082E037C082E89FEF13969C938E93129771
:102C70009A01AB0167E0220F331F441F551F6A956D
:102C8000D1F783E08C930DC0220F331F441F551FD3
:102C900012968D919C911397019713969C938E9306
:102CA0001297203080E0380780E0480780E458071A
:102CB00058F314962D933D934D935C931797089575
:102CC0002F3F310579F4411551056105710519F45E
:102CD00084E08C93089564FF03C081E08C9312C05C
:102CE0001C9210C02F57304013963C932E9312978E
:102CF00083E08C9387E0440F551F661F771F8A95EA
:102D0000D1F7706414964D935D936D937C931797F0
:102D100008951F93DC01FB019C91923008F447C099
:102D20008081823008F443C0943051F411961C9194
:102D3000843099F58181682F70E0611B71093FC073
:102D4000843021F0923031F48230B9F181818823CE
:102D500089F12DC011961C9111978230F1F081817B
:102D60001817D9F412962D913C9113978281938173
:102D70008217930794F028173907BCF014968D91A9
:102D80009D910D90BC91A02D248135814681578164
:102D9000281739074A075B0718F4112341F00AC0C6
:102DA00082179307A407B50740F4112319F061E0D7
:102DB00070E005C06FEF7FEF02C060E070E0CB0114
:102DC0001F910895FB01DC0102C001900D9241505A
:102DD0005040D8F70895AA1BBB1B51E107C0AA1F9A
:102DE000BB1FA617B70710F0A61BB70B881F991FAC
:102DF0005A95A9F780959095BC01CD01089597FB50
:102E0000092E07260AD077FD04D0E5DF06D0002082
:102E10001AF4709561957F4F0895F6F79095819516
:102E20009F4F0895A1E21A2EAA1BBB1BFD010DC0E6
:102E3000AA1FBB1FEE1FFF1FA217B307E407F5076A
:102E400020F0A21BB30BE40BF50B661F771F881F46
:102E5000991F1A9469F760957095809590959B01DC
:102E6000AC01BD01CF0108952F923F924F925F9226
:102E70006F927F928F929F92AF92BF92CF92DF928A
:102E8000EF92FF920F931F93CF93DF93CDB7DEB7EF
:102E9000CA1BDB0B0FB6F894DEBF0FBECDBF099483
:102EA0002A88398848885F846E847D848C849B84DA
:102EB000AA84B984C884DF80EE80FD800C811B81E8
:102EC000AA81B981CE0FD11D0FB6F894DEBF0FBE17
:0A2ED000CDBFED010895F894FFCF87
:102EDA0001010002000400080010002000400080E8
:102EEA00000001AABBCC0211570E040B0E036C0D95
:102EFA0010B30D06EB0D17DE0C012D0C05F00B0FB0
:102F0A00AF0B02870C000000000000000000000068
:102F1A0000000000000000000000000000000000A7
:102F2A000102020303030304040404040404040561
:102F3A000505050505050505050505050505050636
:102F4A000606060606060606060606060606060617
:102F5A000606060606060606060606060606060706
:102F6A0007070707070707070707070707070707E7
:102F7A0007070707070707070707070707070707D7
:102F8A0007070707070707070707070707070707C7
:102F9A0007070707070707070707070707070708B6
:102FAA000808080808080808080808080808080897
:102FBA000808080808080808080808080808080887
:102FCA000808080808080808080808080808080877
:102FDA000808080808080808080808080808080867
:102FEA000808080808080808080808080808080857
:102FFA000808080808080808080808080808080847
:10300A000808080808080808080808080808080836
:10301A00080808080808080808080808080808002E
:00000001FF
